{
  "_format": "hh-sol-artifact-1",
  "contractName": "ProductOrder",
  "sourceName": "contracts/ProductOrder.sol",
  "abi": [
    {
      "inputs": [
        {
          "internalType": "address",
          "name": "_buyer",
          "type": "address"
        },
        {
          "internalType": "address",
          "name": "_seller",
          "type": "address"
        },
        {
          "internalType": "uint256",
          "name": "_price",
          "type": "uint256"
        }
      ],
      "stateMutability": "nonpayable",
      "type": "constructor"
    },
    {
      "anonymous": false,
      "inputs": [
        {
          "indexed": true,
          "internalType": "address",
          "name": "canceller",
          "type": "address"
        }
      ],
      "name": "OrderCancelled",
      "type": "event"
    },
    {
      "anonymous": false,
      "inputs": [
        {
          "indexed": true,
          "internalType": "address",
          "name": "buyer",
          "type": "address"
        },
        {
          "indexed": true,
          "internalType": "address",
          "name": "seller",
          "type": "address"
        },
        {
          "indexed": false,
          "internalType": "uint256",
          "name": "price",
          "type": "uint256"
        }
      ],
      "name": "OrderCreated",
      "type": "event"
    },
    {
      "anonymous": false,
      "inputs": [
        {
          "indexed": true,
          "internalType": "address",
          "name": "buyer",
          "type": "address"
        }
      ],
      "name": "OrderDelivered",
      "type": "event"
    },
    {
      "anonymous": false,
      "inputs": [
        {
          "indexed": true,
          "internalType": "address",
          "name": "buyer",
          "type": "address"
        },
        {
          "indexed": false,
          "internalType": "uint256",
          "name": "price",
          "type": "uint256"
        }
      ],
      "name": "OrderPaid",
      "type": "event"
    },
    {
      "anonymous": false,
      "inputs": [
        {
          "indexed": true,
          "internalType": "address",
          "name": "seller",
          "type": "address"
        }
      ],
      "name": "OrderShipped",
      "type": "event"
    },
    {
      "inputs": [],
      "name": "buyer",
      "outputs": [
        {
          "internalType": "address",
          "name": "",
          "type": "address"
        }
      ],
      "stateMutability": "view",
      "type": "function"
    },
    {
      "inputs": [],
      "name": "cancelOrder",
      "outputs": [],
      "stateMutability": "nonpayable",
      "type": "function"
    },
    {
      "inputs": [],
      "name": "deliverOrder",
      "outputs": [],
      "stateMutability": "nonpayable",
      "type": "function"
    },
    {
      "inputs": [],
      "name": "payOrder",
      "outputs": [],
      "stateMutability": "payable",
      "type": "function"
    },
    {
      "inputs": [],
      "name": "price",
      "outputs": [
        {
          "internalType": "uint256",
          "name": "",
          "type": "uint256"
        }
      ],
      "stateMutability": "view",
      "type": "function"
    },
    {
      "inputs": [],
      "name": "seller",
      "outputs": [
        {
          "internalType": "address",
          "name": "",
          "type": "address"
        }
      ],
      "stateMutability": "view",
      "type": "function"
    },
    {
      "inputs": [],
      "name": "shipOrder",
      "outputs": [],
      "stateMutability": "nonpayable",
      "type": "function"
    },
    {
      "inputs": [],
      "name": "status",
      "outputs": [
        {
          "internalType": "enum ProductOrder.OrderStatus",
          "name": "",
          "type": "uint8"
        }
      ],
      "stateMutability": "view",
      "type": "function"
    }
  ],
  "bytecode": "0x60806040523480156200001157600080fd5b5060405162000e3338038062000e33833981810160405281019062000037919062000202565b826000806101000a81548173ffffffffffffffffffffffffffffffffffffffff021916908373ffffffffffffffffffffffffffffffffffffffff16021790555081600160006101000a81548173ffffffffffffffffffffffffffffffffffffffff021916908373ffffffffffffffffffffffffffffffffffffffff160217905550806002819055506000600360006101000a81548160ff02191690836004811115620000e857620000e76200025e565b5b02179055508173ffffffffffffffffffffffffffffffffffffffff168373ffffffffffffffffffffffffffffffffffffffff167fbec78cf4909f04d718f8fb2098de7b8a6ec0c984751d7cb9bd90c8ef455309b0836040516200014c91906200029e565b60405180910390a3505050620002bb565b600080fd5b600073ffffffffffffffffffffffffffffffffffffffff82169050919050565b60006200018f8262000162565b9050919050565b620001a18162000182565b8114620001ad57600080fd5b50565b600081519050620001c18162000196565b92915050565b6000819050919050565b620001dc81620001c7565b8114620001e857600080fd5b50565b600081519050620001fc81620001d1565b92915050565b6000806000606084860312156200021e576200021d6200015d565b5b60006200022e86828701620001b0565b93505060206200024186828701620001b0565b92505060406200025486828701620001eb565b9150509250925092565b7f4e487b7100000000000000000000000000000000000000000000000000000000600052602160045260246000fd5b6200029881620001c7565b82525050565b6000602082019050620002b560008301846200028d565b92915050565b610b6880620002cb6000396000f3fe60806040526004361061007b5760003560e01c8063200d2ed21161004e578063200d2ed2146100e35780636a8165481461010e5780637150d8ae14610125578063a035b1fe146101505761007b565b80630651e0c31461008057806308551a53146100975780630af316dc146100c2578063101b4dd5146100d9575b600080fd5b34801561008c57600080fd5b5061009561017b565b005b3480156100a357600080fd5b506100ac61029d565b6040516100b9919061078c565b60405180910390f35b3480156100ce57600080fd5b506100d76102c3565b005b6100e161044b565b005b3480156100ef57600080fd5b506100f86105b8565b604051610105919061081e565b60405180910390f35b34801561011a57600080fd5b506101236105cb565b005b34801561013157600080fd5b5061013a610721565b604051610147919061078c565b60405180910390f35b34801561015c57600080fd5b50610165610745565b6040516101729190610852565b60405180910390f35b600160009054906101000a900473ffffffffffffffffffffffffffffffffffffffff1673ffffffffffffffffffffffffffffffffffffffff163373ffffffffffffffffffffffffffffffffffffffff161461020b576040517f08c379a0000000000000000000000000000000000000000000000000000000008152600401610202906108f0565b60405180910390fd5b6002600360006101000a81548160ff02191690836004811115610231576102306107a7565b5b0217905550600160009054906101000a900473ffffffffffffffffffffffffffffffffffffffff1673ffffffffffffffffffffffffffffffffffffffff167f8b8c9371ad004dd01626518f29f7c329de7a60a0335063921edf2310d8fd172360405160405180910390a2565b600160009054906101000a900473ffffffffffffffffffffffffffffffffffffffff1681565b60008054906101000a900473ffffffffffffffffffffffffffffffffffffffff1673ffffffffffffffffffffffffffffffffffffffff163373ffffffffffffffffffffffffffffffffffffffff1614610351576040517f08c379a000000000000000000000000000000000000000000000000000000000815260040161034890610982565b60405180910390fd5b60038060006101000a81548160ff02191690836004811115610376576103756107a7565b5b021790555060008054906101000a900473ffffffffffffffffffffffffffffffffffffffff1673ffffffffffffffffffffffffffffffffffffffff167f27eb5a6f6cf713fc8b91ccca5375549b531b8e6ef51317e72d9dc0c4a772b94660405160405180910390a2600160009054906101000a900473ffffffffffffffffffffffffffffffffffffffff1673ffffffffffffffffffffffffffffffffffffffff166108fc6002549081150290604051600060405180830381858888f19350505050158015610448573d6000803e3d6000fd5b50565b60008054906101000a900473ffffffffffffffffffffffffffffffffffffffff1673ffffffffffffffffffffffffffffffffffffffff163373ffffffffffffffffffffffffffffffffffffffff16146104d9576040517f08c379a00000000000000000000000000000000000000000000000000000000081526004016104d090610a14565b60405180910390fd5b600254341461051d576040517f08c379a000000000000000000000000000000000000000000000000000000000815260040161051490610a80565b60405180910390fd5b6001600360006101000a81548160ff02191690836004811115610543576105426107a7565b5b021790555060008054906101000a900473ffffffffffffffffffffffffffffffffffffffff1673ffffffffffffffffffffffffffffffffffffffff167f8f307fe2803353762f108a2d1ea975f50446ec43716d924e3bc468457043bd63346040516105ae9190610852565b60405180910390a2565b600360009054906101000a900460ff1681565b60008054906101000a900473ffffffffffffffffffffffffffffffffffffffff1673ffffffffffffffffffffffffffffffffffffffff163373ffffffffffffffffffffffffffffffffffffffff1614806106725750600160009054906101000a900473ffffffffffffffffffffffffffffffffffffffff1673ffffffffffffffffffffffffffffffffffffffff163373ffffffffffffffffffffffffffffffffffffffff16145b6106b1576040517f08c379a00000000000000000000000000000000000000000000000000000000081526004016106a890610b12565b60405180910390fd5b6004600360006101000a81548160ff021916908360048111156106d7576106d66107a7565b5b02179055503373ffffffffffffffffffffffffffffffffffffffff167f6b8212b205b721ddcff41db420898b1132d4f1400798c1770b4e3c52498c05ef60405160405180910390a2565b60008054906101000a900473ffffffffffffffffffffffffffffffffffffffff1681565b60025481565b600073ffffffffffffffffffffffffffffffffffffffff82169050919050565b60006107768261074b565b9050919050565b6107868161076b565b82525050565b60006020820190506107a1600083018461077d565b92915050565b7f4e487b7100000000000000000000000000000000000000000000000000000000600052602160045260246000fd5b600581106107e7576107e66107a7565b5b50565b60008190506107f8826107d6565b919050565b6000610808826107ea565b9050919050565b610818816107fd565b82525050565b6000602082019050610833600083018461080f565b92915050565b6000819050919050565b61084c81610839565b82525050565b60006020820190506108676000830184610843565b92915050565b600082825260208201905092915050565b7f4f6e6c79207468652073656c6c65722063616e206d61726b20746865206f726460008201527f657220617320736869707065642e000000000000000000000000000000000000602082015250565b60006108da602e8361086d565b91506108e58261087e565b604082019050919050565b60006020820190508181036000830152610909816108cd565b9050919050565b7f4f6e6c79207468652062757965722063616e206d61726b20746865206f72646560008201527f722061732064656c6976657265642e0000000000000000000000000000000000602082015250565b600061096c602f8361086d565b915061097782610910565b604082019050919050565b6000602082019050818103600083015261099b8161095f565b9050919050565b7f4f6e6c79207468652062757965722063616e2070617920666f7220746865206f60008201527f726465722e000000000000000000000000000000000000000000000000000000602082015250565b60006109fe60258361086d565b9150610a09826109a2565b604082019050919050565b60006020820190508181036000830152610a2d816109f1565b9050919050565b7f496e636f7272656374207061796d656e7420616d6f756e742e00000000000000600082015250565b6000610a6a60198361086d565b9150610a7582610a34565b602082019050919050565b60006020820190508181036000830152610a9981610a5d565b9050919050565b7f4f6e6c7920746865206275796572206f722073656c6c65722063616e2063616e60008201527f63656c20746865206f726465722e000000000000000000000000000000000000602082015250565b6000610afc602e8361086d565b9150610b0782610aa0565b604082019050919050565b60006020820190508181036000830152610b2b81610aef565b905091905056fea264697066735822122050572a1b121daee548ff24d4803f1f77d542b8b561d88845a664b40feee1b83f64736f6c63430008180033",
  "linkReferences": {},
  "deployedLinkReferences": {}
}