{
  "_format": "hh-sol-artifact-1",
  "contractName": "Order",
  "sourceName": "contracts/Order.sol",
  "abi": [
    {
      "anonymous": false,
      "inputs": [
        {
          "indexed": true,
          "internalType": "string",
          "name": "orderId",
          "type": "string"
        },
        {
          "indexed": true,
          "internalType": "address",
          "name": "canceller",
          "type": "address"
        }
      ],
      "name": "OrderCancelled",
      "type": "event"
    },
    {
      "anonymous": false,
      "inputs": [
        {
          "indexed": true,
          "internalType": "string",
          "name": "orderId",
          "type": "string"
        },
        {
          "indexed": true,
          "internalType": "address",
          "name": "buyer",
          "type": "address"
        },
        {
          "indexed": true,
          "internalType": "address",
          "name": "seller",
          "type": "address"
        },
        {
          "indexed": false,
          "internalType": "uint256",
          "name": "totalAmount",
          "type": "uint256"
        }
      ],
      "name": "OrderCreated",
      "type": "event"
    },
    {
      "anonymous": false,
      "inputs": [
        {
          "indexed": true,
          "internalType": "string",
          "name": "orderId",
          "type": "string"
        },
        {
          "indexed": true,
          "internalType": "address",
          "name": "buyer",
          "type": "address"
        }
      ],
      "name": "OrderDelivered",
      "type": "event"
    },
    {
      "anonymous": false,
      "inputs": [
        {
          "indexed": true,
          "internalType": "string",
          "name": "orderId",
          "type": "string"
        },
        {
          "indexed": true,
          "internalType": "address",
          "name": "buyer",
          "type": "address"
        },
        {
          "indexed": false,
          "internalType": "uint256",
          "name": "totalAmount",
          "type": "uint256"
        }
      ],
      "name": "OrderPaid",
      "type": "event"
    },
    {
      "anonymous": false,
      "inputs": [
        {
          "indexed": true,
          "internalType": "string",
          "name": "orderId",
          "type": "string"
        },
        {
          "indexed": true,
          "internalType": "address",
          "name": "seller",
          "type": "address"
        }
      ],
      "name": "OrderShipped",
      "type": "event"
    },
    {
      "inputs": [
        {
          "internalType": "string",
          "name": "_orderId",
          "type": "string"
        }
      ],
      "name": "cancelOrder",
      "outputs": [],
      "stateMutability": "nonpayable",
      "type": "function"
    },
    {
      "inputs": [
        {
          "internalType": "string",
          "name": "_orderId",
          "type": "string"
        },
        {
          "internalType": "address",
          "name": "_buyer",
          "type": "address"
        },
        {
          "internalType": "address",
          "name": "_seller",
          "type": "address"
        },
        {
          "internalType": "uint256",
          "name": "_totalAmount",
          "type": "uint256"
        },
        {
          "components": [
            {
              "internalType": "string",
              "name": "productId",
              "type": "string"
            },
            {
              "internalType": "uint256",
              "name": "quantity",
              "type": "uint256"
            },
            {
              "internalType": "uint256",
              "name": "pricePerUnit",
              "type": "uint256"
            }
          ],
          "internalType": "struct Order.ProductItem[]",
          "name": "_items",
          "type": "tuple[]"
        }
      ],
      "name": "createOrder",
      "outputs": [],
      "stateMutability": "nonpayable",
      "type": "function"
    },
    {
      "inputs": [
        {
          "internalType": "string",
          "name": "_orderId",
          "type": "string"
        }
      ],
      "name": "deliverOrder",
      "outputs": [],
      "stateMutability": "nonpayable",
      "type": "function"
    },
    {
      "inputs": [
        {
          "internalType": "string",
          "name": "_orderId",
          "type": "string"
        }
      ],
      "name": "getOrder",
      "outputs": [
        {
          "internalType": "string",
          "name": "orderId",
          "type": "string"
        },
        {
          "internalType": "address",
          "name": "buyer",
          "type": "address"
        },
        {
          "internalType": "address",
          "name": "seller",
          "type": "address"
        },
        {
          "internalType": "uint256",
          "name": "totalAmount",
          "type": "uint256"
        },
        {
          "components": [
            {
              "internalType": "string",
              "name": "productId",
              "type": "string"
            },
            {
              "internalType": "uint256",
              "name": "quantity",
              "type": "uint256"
            },
            {
              "internalType": "uint256",
              "name": "pricePerUnit",
              "type": "uint256"
            }
          ],
          "internalType": "struct Order.ProductItem[]",
          "name": "items",
          "type": "tuple[]"
        },
        {
          "internalType": "enum Order.OrderStatus",
          "name": "status",
          "type": "uint8"
        },
        {
          "internalType": "uint256",
          "name": "createdAt",
          "type": "uint256"
        },
        {
          "internalType": "uint256",
          "name": "paidAt",
          "type": "uint256"
        }
      ],
      "stateMutability": "view",
      "type": "function"
    },
    {
      "inputs": [
        {
          "internalType": "string",
          "name": "",
          "type": "string"
        }
      ],
      "name": "orderExists",
      "outputs": [
        {
          "internalType": "bool",
          "name": "",
          "type": "bool"
        }
      ],
      "stateMutability": "view",
      "type": "function"
    },
    {
      "inputs": [
        {
          "internalType": "string",
          "name": "",
          "type": "string"
        }
      ],
      "name": "orders",
      "outputs": [
        {
          "internalType": "string",
          "name": "orderId",
          "type": "string"
        },
        {
          "internalType": "address",
          "name": "buyer",
          "type": "address"
        },
        {
          "internalType": "address",
          "name": "seller",
          "type": "address"
        },
        {
          "internalType": "uint256",
          "name": "totalAmount",
          "type": "uint256"
        },
        {
          "internalType": "enum Order.OrderStatus",
          "name": "status",
          "type": "uint8"
        },
        {
          "internalType": "uint256",
          "name": "createdAt",
          "type": "uint256"
        },
        {
          "internalType": "uint256",
          "name": "paidAt",
          "type": "uint256"
        }
      ],
      "stateMutability": "view",
      "type": "function"
    },
    {
      "inputs": [
        {
          "internalType": "string",
          "name": "_orderId",
          "type": "string"
        }
      ],
      "name": "payOrder",
      "outputs": [],
      "stateMutability": "payable",
      "type": "function"
    },
    {
      "inputs": [
        {
          "internalType": "string",
          "name": "_orderId",
          "type": "string"
        }
      ],
      "name": "shipOrder",
      "outputs": [],
      "stateMutability": "nonpayable",
      "type": "function"
    }
  ],
  "bytecode": "0x608060405234801561001057600080fd5b50612468806100206000396000f3fe60806040526004361061007a5760003560e01c8063966a7dca1161004e578063966a7dca14610158578063a959d58514610174578063c2558ffd146101b1578063f76c0e1a146101da5761007a565b8062b61ace1461007f578063186d89d9146100a85780631a948947146100d1578063712ca0f814610114575b600080fd5b34801561008b57600080fd5b506100a660048036038101906100a19190611478565b610203565b005b3480156100b457600080fd5b506100cf60048036038101906100ca9190611478565b6104b6565b005b3480156100dd57600080fd5b506100f860048036038101906100f39190611478565b6106fa565b60405161010b9796959493929190611611565b60405180910390f35b34801561012057600080fd5b5061013b60048036038101906101369190611478565b610827565b60405161014f9897969594939291906117f2565b60405180910390f35b610172600480360381019061016d9190611478565b610adb565b005b34801561018057600080fd5b5061019b60048036038101906101969190611478565b610d79565b6040516101a89190611899565b60405180910390f35b3480156101bd57600080fd5b506101d860048036038101906101d39190611478565b610daf565b005b3480156101e657600080fd5b5061020160048036038101906101fc9190611a7c565b611069565b005b600080826040516102149190611b6b565b908152602001604051809103902090506001826040516102349190611b6b565b908152602001604051809103902060009054906101000a900460ff1661028f576040517f08c379a000000000000000000000000000000000000000000000000000000000815260040161028690611bce565b60405180910390fd5b8060010160009054906101000a900473ffffffffffffffffffffffffffffffffffffffff1673ffffffffffffffffffffffffffffffffffffffff163373ffffffffffffffffffffffffffffffffffffffff1614610321576040517f08c379a000000000000000000000000000000000000000000000000000000000815260040161031890611c60565b60405180910390fd5b600260048111156103355761033461159a565b5b8160050160009054906101000a900460ff1660048111156103595761035861159a565b5b14610399576040517f08c379a000000000000000000000000000000000000000000000000000000000815260040161039090611ccc565b60405180910390fd5b60038160050160006101000a81548160ff021916908360048111156103c1576103c061159a565b5b02179055508060020160009054906101000a900473ffffffffffffffffffffffffffffffffffffffff1673ffffffffffffffffffffffffffffffffffffffff166108fc82600301549081150290604051600060405180830381858888f19350505050158015610434573d6000803e3d6000fd5b508060010160009054906101000a900473ffffffffffffffffffffffffffffffffffffffff1673ffffffffffffffffffffffffffffffffffffffff168260405161047e9190611b6b565b60405180910390207f0428dc7031c0c35b6cfc8c2573c1f2eecf691dcffacf2a33fd549f311ae5f29d60405160405180910390a35050565b600080826040516104c79190611b6b565b908152602001604051809103902090506001826040516104e79190611b6b565b908152602001604051809103902060009054906101000a900460ff16610542576040517f08c379a000000000000000000000000000000000000000000000000000000000815260040161053990611bce565b60405180910390fd5b8060020160009054906101000a900473ffffffffffffffffffffffffffffffffffffffff1673ffffffffffffffffffffffffffffffffffffffff163373ffffffffffffffffffffffffffffffffffffffff16146105d4576040517f08c379a00000000000000000000000000000000000000000000000000000000081526004016105cb90611d5e565b60405180910390fd5b600160048111156105e8576105e761159a565b5b8160050160009054906101000a900460ff16600481111561060c5761060b61159a565b5b1461064c576040517f08c379a000000000000000000000000000000000000000000000000000000000815260040161064390611dca565b60405180910390fd5b60028160050160006101000a81548160ff021916908360048111156106745761067361159a565b5b02179055508060020160009054906101000a900473ffffffffffffffffffffffffffffffffffffffff1673ffffffffffffffffffffffffffffffffffffffff16826040516106c29190611b6b565b60405180910390207fe11f87f27c1630c64dc81f715c7fd24d723c4ff60fd8c676c1d6441128ed97f360405160405180910390a35050565b60008180516020810182018051848252602083016020850120818352809550505050505060009150905080600001805461073390611e19565b80601f016020809104026020016040519081016040528092919081815260200182805461075f90611e19565b80156107ac5780601f10610781576101008083540402835291602001916107ac565b820191906000526020600020905b81548152906001019060200180831161078f57829003601f168201915b5050505050908060010160009054906101000a900473ffffffffffffffffffffffffffffffffffffffff16908060020160009054906101000a900473ffffffffffffffffffffffffffffffffffffffff16908060030154908060050160009054906101000a900460ff16908060060154908060070154905087565b60606000806000606060008060008060008a6040516108469190611b6b565b9081526020016040518091039020905060018a6040516108669190611b6b565b908152602001604051809103902060009054906101000a900460ff166108c1576040517f08c379a00000000000000000000000000000000000000000000000000000000081526004016108b890611bce565b60405180910390fd5b806000018160010160009054906101000a900473ffffffffffffffffffffffffffffffffffffffff168260020160009054906101000a900473ffffffffffffffffffffffffffffffffffffffff168360030154846004018560050160009054906101000a900460ff168660060154876007015487805461094090611e19565b80601f016020809104026020016040519081016040528092919081815260200182805461096c90611e19565b80156109b95780601f1061098e576101008083540402835291602001916109b9565b820191906000526020600020905b81548152906001019060200180831161099c57829003601f168201915b5050505050975083805480602002602001604051908101604052809291908181526020016000905b82821015610ab95783829060005260206000209060030201604051806060016040529081600082018054610a1490611e19565b80601f0160208091040260200160405190810160405280929190818152602001828054610a4090611e19565b8015610a8d5780601f10610a6257610100808354040283529160200191610a8d565b820191906000526020600020905b815481529060010190602001808311610a7057829003601f168201915b5050505050815260200160018201548152602001600282015481525050815260200190600101906109e1565b5050505093509850985098509850985098509850985050919395975091939597565b60008082604051610aec9190611b6b565b90815260200160405180910390209050600182604051610b0c9190611b6b565b908152602001604051809103902060009054906101000a900460ff16610b67576040517f08c379a0000000000000000000000000000000000000000000000000000000008152600401610b5e90611bce565b60405180910390fd5b8060010160009054906101000a900473ffffffffffffffffffffffffffffffffffffffff1673ffffffffffffffffffffffffffffffffffffffff163373ffffffffffffffffffffffffffffffffffffffff1614610bf9576040517f08c379a0000000000000000000000000000000000000000000000000000000008152600401610bf090611ebc565b60405180910390fd5b60006004811115610c0d57610c0c61159a565b5b8160050160009054906101000a900460ff166004811115610c3157610c3061159a565b5b14610c71576040517f08c379a0000000000000000000000000000000000000000000000000000000008152600401610c6890611f28565b60405180910390fd5b80600301543414610cb7576040517f08c379a0000000000000000000000000000000000000000000000000000000008152600401610cae90611f94565b60405180910390fd5b60018160050160006101000a81548160ff02191690836004811115610cdf57610cde61159a565b5b02179055504281600701819055508060010160009054906101000a900473ffffffffffffffffffffffffffffffffffffffff1673ffffffffffffffffffffffffffffffffffffffff1682604051610d369190611b6b565b60405180910390207f90e1d0c46d2502169585bdac3bfaab23d6d93307febf995c863d64dafc6ab88634604051610d6d9190611fb4565b60405180910390a35050565b6001818051602081018201805184825260208301602085012081835280955050505050506000915054906101000a900460ff1681565b60008082604051610dc09190611b6b565b90815260200160405180910390209050600182604051610de09190611b6b565b908152602001604051809103902060009054906101000a900460ff16610e3b576040517f08c379a0000000000000000000000000000000000000000000000000000000008152600401610e3290611bce565b60405180910390fd5b8060010160009054906101000a900473ffffffffffffffffffffffffffffffffffffffff1673ffffffffffffffffffffffffffffffffffffffff163373ffffffffffffffffffffffffffffffffffffffff161480610ee857508060020160009054906101000a900473ffffffffffffffffffffffffffffffffffffffff1673ffffffffffffffffffffffffffffffffffffffff163373ffffffffffffffffffffffffffffffffffffffff16145b610f27576040517f08c379a0000000000000000000000000000000000000000000000000000000008152600401610f1e90612041565b60405180910390fd5b60006004811115610f3b57610f3a61159a565b5b8160050160009054906101000a900460ff166004811115610f5f57610f5e61159a565b5b1480610fa0575060016004811115610f7a57610f7961159a565b5b8160050160009054906101000a900460ff166004811115610f9e57610f9d61159a565b5b145b610fdf576040517f08c379a0000000000000000000000000000000000000000000000000000000008152600401610fd6906120d3565b60405180910390fd5b60048160050160006101000a81548160ff021916908360048111156110075761100661159a565b5b02179055503373ffffffffffffffffffffffffffffffffffffffff16826040516110319190611b6b565b60405180910390207fe2806ffacf04a33838017ebf4dbfee4f001e33491e8a76778c54703ef3e9c05360405160405180910390a35050565b6001856040516110799190611b6b565b908152602001604051809103902060009054906101000a900460ff16156110d5576040517f08c379a00000000000000000000000000000000000000000000000000000000081526004016110cc90612165565b60405180910390fd5b600080866040516110e69190611b6b565b90815260200160405180910390209050858160000190816111079190612331565b50848160010160006101000a81548173ffffffffffffffffffffffffffffffffffffffff021916908373ffffffffffffffffffffffffffffffffffffffff160217905550838160020160006101000a81548173ffffffffffffffffffffffffffffffffffffffff021916908373ffffffffffffffffffffffffffffffffffffffff16021790555082816003018190555060008160050160006101000a81548160ff021916908360048111156111bf576111be61159a565b5b02179055504281600601819055506000816007018190555060005b825181101561126457816004018382815181106111fa576111f9612403565b5b6020026020010151908060018154018082558091505060019003906000526020600020906003020160009091909190915060008201518160000190816112409190612331565b506020820151816001015560408201518160020155505080806001019150506111da565b50600180876040516112769190611b6b565b908152602001604051809103902060006101000a81548160ff0219169083151502179055508373ffffffffffffffffffffffffffffffffffffffff168573ffffffffffffffffffffffffffffffffffffffff16876040516112d79190611b6b565b60405180910390207fb941f344ddf6d71c2a3bc81a2cd28f848d3c008640eb2e5e4fc1ebf61f19d26d8660405161130e9190611fb4565b60405180910390a4505050505050565b6000604051905090565b600080fd5b600080fd5b600080fd5b600080fd5b6000601f19601f8301169050919050565b7f4e487b7100000000000000000000000000000000000000000000000000000000600052604160045260246000fd5b6113858261133c565b810181811067ffffffffffffffff821117156113a4576113a361134d565b5b80604052505050565b60006113b761131e565b90506113c3828261137c565b919050565b600067ffffffffffffffff8211156113e3576113e261134d565b5b6113ec8261133c565b9050602081019050919050565b82818337600083830152505050565b600061141b611416846113c8565b6113ad565b90508281526020810184848401111561143757611436611337565b5b6114428482856113f9565b509392505050565b600082601f83011261145f5761145e611332565b5b813561146f848260208601611408565b91505092915050565b60006020828403121561148e5761148d611328565b5b600082013567ffffffffffffffff8111156114ac576114ab61132d565b5b6114b88482850161144a565b91505092915050565b600081519050919050565b600082825260208201905092915050565b60005b838110156114fb5780820151818401526020810190506114e0565b60008484015250505050565b6000611512826114c1565b61151c81856114cc565b935061152c8185602086016114dd565b6115358161133c565b840191505092915050565b600073ffffffffffffffffffffffffffffffffffffffff82169050919050565b600061156b82611540565b9050919050565b61157b81611560565b82525050565b6000819050919050565b61159481611581565b82525050565b7f4e487b7100000000000000000000000000000000000000000000000000000000600052602160045260246000fd5b600581106115da576115d961159a565b5b50565b60008190506115eb826115c9565b919050565b60006115fb826115dd565b9050919050565b61160b816115f0565b82525050565b600060e082019050818103600083015261162b818a611507565b905061163a6020830189611572565b6116476040830188611572565b611654606083018761158b565b6116616080830186611602565b61166e60a083018561158b565b61167b60c083018461158b565b98975050505050505050565b600081519050919050565b600082825260208201905092915050565b6000819050602082019050919050565b600082825260208201905092915050565b60006116cf826114c1565b6116d981856116b3565b93506116e98185602086016114dd565b6116f28161133c565b840191505092915050565b61170681611581565b82525050565b6000606083016000830151848203600086015261172982826116c4565b915050602083015161173e60208601826116fd565b50604083015161175160408601826116fd565b508091505092915050565b6000611768838361170c565b905092915050565b6000602082019050919050565b600061178882611687565b6117928185611692565b9350836020820285016117a4856116a3565b8060005b858110156117e057848403895281516117c1858261175c565b94506117cc83611770565b925060208a019950506001810190506117a8565b50829750879550505050505092915050565b600061010082019050818103600083015261180d818b611507565b905061181c602083018a611572565b6118296040830189611572565b611836606083018861158b565b8181036080830152611848818761177d565b905061185760a0830186611602565b61186460c083018561158b565b61187160e083018461158b565b9998505050505050505050565b60008115159050919050565b6118938161187e565b82525050565b60006020820190506118ae600083018461188a565b92915050565b6118bd81611560565b81146118c857600080fd5b50565b6000813590506118da816118b4565b92915050565b6118e981611581565b81146118f457600080fd5b50565b600081359050611906816118e0565b92915050565b600067ffffffffffffffff8211156119275761192661134d565b5b602082029050602081019050919050565b600080fd5b600080fd5b600080fd5b60006060828403121561195d5761195c61193d565b5b61196760606113ad565b9050600082013567ffffffffffffffff81111561198757611986611942565b5b6119938482850161144a565b60008301525060206119a7848285016118f7565b60208301525060406119bb848285016118f7565b60408301525092915050565b60006119da6119d58461190c565b6113ad565b905080838252602082019050602084028301858111156119fd576119fc611938565b5b835b81811015611a4457803567ffffffffffffffff811115611a2257611a21611332565b5b808601611a2f8982611947565b855260208501945050506020810190506119ff565b5050509392505050565b600082601f830112611a6357611a62611332565b5b8135611a738482602086016119c7565b91505092915050565b600080600080600060a08688031215611a9857611a97611328565b5b600086013567ffffffffffffffff811115611ab657611ab561132d565b5b611ac28882890161144a565b9550506020611ad3888289016118cb565b9450506040611ae4888289016118cb565b9350506060611af5888289016118f7565b925050608086013567ffffffffffffffff811115611b1657611b1561132d565b5b611b2288828901611a4e565b9150509295509295909350565b600081905092915050565b6000611b45826114c1565b611b4f8185611b2f565b9350611b5f8185602086016114dd565b80840191505092915050565b6000611b778284611b3a565b915081905092915050565b7f4f7264657220646f6573206e6f742065786973742e0000000000000000000000600082015250565b6000611bb86015836114cc565b9150611bc382611b82565b602082019050919050565b60006020820190508181036000830152611be781611bab565b9050919050565b7f4f6e6c79207468652062757965722063616e206d61726b20746865206f72646560008201527f722061732064656c6976657265642e0000000000000000000000000000000000602082015250565b6000611c4a602f836114cc565b9150611c5582611bee565b604082019050919050565b60006020820190508181036000830152611c7981611c3d565b9050919050565b7f4f72646572206973206e6f7420696e2053686970706564207374617475732e00600082015250565b6000611cb6601f836114cc565b9150611cc182611c80565b602082019050919050565b60006020820190508181036000830152611ce581611ca9565b9050919050565b7f4f6e6c79207468652073656c6c65722063616e206d61726b20746865206f726460008201527f657220617320736869707065642e000000000000000000000000000000000000602082015250565b6000611d48602e836114cc565b9150611d5382611cec565b604082019050919050565b60006020820190508181036000830152611d7781611d3b565b9050919050565b7f4f72646572206973206e6f7420696e2050616964207374617475732e00000000600082015250565b6000611db4601c836114cc565b9150611dbf82611d7e565b602082019050919050565b60006020820190508181036000830152611de381611da7565b9050919050565b7f4e487b7100000000000000000000000000000000000000000000000000000000600052602260045260246000fd5b60006002820490506001821680611e3157607f821691505b602082108103611e4457611e43611dea565b5b50919050565b7f4f6e6c79207468652062757965722063616e2070617920666f7220746865206f60008201527f726465722e000000000000000000000000000000000000000000000000000000602082015250565b6000611ea66025836114cc565b9150611eb182611e4a565b604082019050919050565b60006020820190508181036000830152611ed581611e99565b9050919050565b7f4f72646572206973206e6f7420696e2043726561746564207374617475732e00600082015250565b6000611f12601f836114cc565b9150611f1d82611edc565b602082019050919050565b60006020820190508181036000830152611f4181611f05565b9050919050565b7f496e636f7272656374207061796d656e7420616d6f756e742e00000000000000600082015250565b6000611f7e6019836114cc565b9150611f8982611f48565b602082019050919050565b60006020820190508181036000830152611fad81611f71565b9050919050565b6000602082019050611fc9600083018461158b565b92915050565b7f4f6e6c7920746865206275796572206f722073656c6c65722063616e2063616e60008201527f63656c20746865206f726465722e000000000000000000000000000000000000602082015250565b600061202b602e836114cc565b915061203682611fcf565b604082019050919050565b6000602082019050818103600083015261205a8161201e565b9050919050565b7f4f726465722063616e6e6f742062652063616e63656c6c65642061742074686960008201527f732073746167652e000000000000000000000000000000000000000000000000602082015250565b60006120bd6028836114cc565b91506120c882612061565b604082019050919050565b600060208201905081810360008301526120ec816120b0565b9050919050565b7f4f726465722077697468207468697320494420616c726561647920657869737460008201527f732e000000000000000000000000000000000000000000000000000000000000602082015250565b600061214f6022836114cc565b915061215a826120f3565b604082019050919050565b6000602082019050818103600083015261217e81612142565b9050919050565b60008190508160005260206000209050919050565b60006020601f8301049050919050565b600082821b905092915050565b6000600883026121e77fffffffffffffffffffffffffffffffffffffffffffffffffffffffffffffffff826121aa565b6121f186836121aa565b95508019841693508086168417925050509392505050565b6000819050919050565b600061222e61222961222484611581565b612209565b611581565b9050919050565b6000819050919050565b61224883612213565b61225c61225482612235565b8484546121b7565b825550505050565b600090565b612271612264565b61227c81848461223f565b505050565b5b818110156122a057612295600082612269565b600181019050612282565b5050565b601f8211156122e5576122b681612185565b6122bf8461219a565b810160208510156122ce578190505b6122e26122da8561219a565b830182612281565b50505b505050565b600082821c905092915050565b6000612308600019846008026122ea565b1980831691505092915050565b600061232183836122f7565b9150826002028217905092915050565b61233a826114c1565b67ffffffffffffffff8111156123535761235261134d565b5b61235d8254611e19565b6123688282856122a4565b600060209050601f83116001811461239b5760008415612389578287015190505b6123938582612315565b8655506123fb565b601f1984166123a986612185565b60005b828110156123d1578489015182556001820191506020850194506020810190506123ac565b868310156123ee57848901516123ea601f8916826122f7565b8355505b6001600288020188555050505b505050505050565b7f4e487b7100000000000000000000000000000000000000000000000000000000600052603260045260246000fdfea26469706673582212200a66b404685fa15751f6205d37888236d475bf86b2a376160f7d243563617f9364736f6c63430008180033",
  "linkReferences": {},
  "deployedLinkReferences": {}
}